{
  "contractName": "MultisigWallet",
  "abi": [
    {
      "inputs": [],
      "stateMutability": "nonpayable",
      "type": "constructor"
    },
    {
      "anonymous": false,
      "inputs": [
        {
          "indexed": false,
          "internalType": "address",
          "name": "from",
          "type": "address"
        },
        {
          "indexed": false,
          "internalType": "uint256",
          "name": "amount",
          "type": "uint256"
        }
      ],
      "name": "Deposit",
      "type": "event"
    },
    {
      "anonymous": false,
      "inputs": [
        {
          "indexed": false,
          "internalType": "address",
          "name": "from",
          "type": "address"
        },
        {
          "indexed": false,
          "internalType": "address",
          "name": "to",
          "type": "address"
        },
        {
          "indexed": false,
          "internalType": "uint256",
          "name": "amount",
          "type": "uint256"
        },
        {
          "indexed": false,
          "internalType": "uint256",
          "name": "transactionId",
          "type": "uint256"
        }
      ],
      "name": "TransactionCompleted",
      "type": "event"
    },
    {
      "anonymous": false,
      "inputs": [
        {
          "indexed": false,
          "internalType": "address",
          "name": "from",
          "type": "address"
        },
        {
          "indexed": false,
          "internalType": "address",
          "name": "to",
          "type": "address"
        },
        {
          "indexed": false,
          "internalType": "uint256",
          "name": "amount",
          "type": "uint256"
        },
        {
          "indexed": false,
          "internalType": "uint256",
          "name": "transactionId",
          "type": "uint256"
        }
      ],
      "name": "TransactionCreated",
      "type": "event"
    },
    {
      "anonymous": false,
      "inputs": [
        {
          "indexed": false,
          "internalType": "address",
          "name": "by",
          "type": "address"
        },
        {
          "indexed": false,
          "internalType": "uint256",
          "name": "transactionId",
          "type": "uint256"
        }
      ],
      "name": "TransactionSigned",
      "type": "event"
    },
    {
      "anonymous": false,
      "inputs": [
        {
          "indexed": false,
          "internalType": "address",
          "name": "to",
          "type": "address"
        },
        {
          "indexed": false,
          "internalType": "uint256",
          "name": "amount",
          "type": "uint256"
        }
      ],
      "name": "Withdraw",
      "type": "event"
    },
    {
      "inputs": [],
      "name": "MinSignatures",
      "outputs": [
        {
          "internalType": "uint8",
          "name": "",
          "type": "uint8"
        }
      ],
      "stateMutability": "view",
      "type": "function",
      "constant": true
    },
    {
      "inputs": [],
      "name": "owner",
      "outputs": [
        {
          "internalType": "address",
          "name": "",
          "type": "address"
        }
      ],
      "stateMutability": "view",
      "type": "function",
      "constant": true
    },
    {
      "inputs": [
        {
          "internalType": "uint256",
          "name": "",
          "type": "uint256"
        }
      ],
      "name": "pendingTransactions",
      "outputs": [
        {
          "internalType": "uint256",
          "name": "",
          "type": "uint256"
        }
      ],
      "stateMutability": "view",
      "type": "function",
      "constant": true
    },
    {
      "inputs": [
        {
          "internalType": "uint256",
          "name": "",
          "type": "uint256"
        }
      ],
      "name": "transactions",
      "outputs": [
        {
          "internalType": "address",
          "name": "from",
          "type": "address"
        },
        {
          "internalType": "address payable",
          "name": "to",
          "type": "address"
        },
        {
          "internalType": "uint256",
          "name": "amount",
          "type": "uint256"
        },
        {
          "internalType": "uint256",
          "name": "signatureCount",
          "type": "uint256"
        },
        {
          "internalType": "uint256",
          "name": "transactionId",
          "type": "uint256"
        }
      ],
      "stateMutability": "view",
      "type": "function",
      "constant": true
    },
    {
      "inputs": [
        {
          "internalType": "address",
          "name": "addr",
          "type": "address"
        }
      ],
      "name": "addMember",
      "outputs": [
        {
          "internalType": "bool",
          "name": "",
          "type": "bool"
        }
      ],
      "stateMutability": "nonpayable",
      "type": "function"
    },
    {
      "inputs": [
        {
          "internalType": "address",
          "name": "addr",
          "type": "address"
        }
      ],
      "name": "removeMember",
      "outputs": [
        {
          "internalType": "bool",
          "name": "",
          "type": "bool"
        }
      ],
      "stateMutability": "nonpayable",
      "type": "function"
    },
    {
      "inputs": [
        {
          "internalType": "address",
          "name": "addr",
          "type": "address"
        }
      ],
      "name": "checkMembers",
      "outputs": [
        {
          "internalType": "bool",
          "name": "",
          "type": "bool"
        }
      ],
      "stateMutability": "view",
      "type": "function",
      "constant": true
    },
    {
      "inputs": [],
      "name": "deposit",
      "outputs": [
        {
          "internalType": "bool",
          "name": "",
          "type": "bool"
        }
      ],
      "stateMutability": "payable",
      "type": "function",
      "payable": true
    },
    {
      "inputs": [
        {
          "internalType": "uint256",
          "name": "amount",
          "type": "uint256"
        }
      ],
      "name": "withdraw",
      "outputs": [
        {
          "internalType": "bool",
          "name": "",
          "type": "bool"
        }
      ],
      "stateMutability": "nonpayable",
      "type": "function"
    },
    {
      "inputs": [
        {
          "internalType": "address payable",
          "name": "to",
          "type": "address"
        },
        {
          "internalType": "uint256",
          "name": "amount",
          "type": "uint256"
        }
      ],
      "name": "transferTo",
      "outputs": [
        {
          "internalType": "bool",
          "name": "",
          "type": "bool"
        }
      ],
      "stateMutability": "nonpayable",
      "type": "function"
    },
    {
      "inputs": [
        {
          "internalType": "uint256",
          "name": "trId",
          "type": "uint256"
        }
      ],
      "name": "signTransaction",
      "outputs": [
        {
          "internalType": "bool",
          "name": "",
          "type": "bool"
        }
      ],
      "stateMutability": "nonpayable",
      "type": "function"
    },
    {
      "inputs": [],
      "name": "balance",
      "outputs": [
        {
          "internalType": "uint256",
          "name": "",
          "type": "uint256"
        }
      ],
      "stateMutability": "view",
      "type": "function",
      "constant": true
    },
    {
      "inputs": [],
      "name": "length",
      "outputs": [
        {
          "internalType": "uint256",
          "name": "",
          "type": "uint256"
        }
      ],
      "stateMutability": "view",
      "type": "function",
      "constant": true
    }
  ],
  "bytecode": "0x60806040526002600060146101000a81548160ff021916908360ff16021790555034801561002c57600080fd5b50336000806101000a81548173ffffffffffffffffffffffffffffffffffffffff021916908373ffffffffffffffffffffffffffffffffffffffff16021790555061152f8061007c6000396000f3fe6080604052600436106100c25760003560e01c806363a8374d1161007f578063b69ef8a811610059578063b69ef8a8146102ba578063ca6d56dc146102e5578063d0e30db014610322578063ebd757a414610340576100c2565b806363a8374d146102115780638da5cb5b1461024e5780639ace38c214610279576100c2565b80630b1ca49a146100c75780630c77fa0b146101045780631f7b6d321461012f5780632ccb1b301461015a5780632e1a7d4d146101975780635d9ec210146101d4575b600080fd5b3480156100d357600080fd5b506100ee60048036038101906100e9919061112d565b61037d565b6040516100fb919061131a565b60405180910390f35b34801561011057600080fd5b50610119610496565b6040516101269190611350565b60405180910390f35b34801561013b57600080fd5b506101446104a9565b6040516101519190611335565b60405180910390f35b34801561016657600080fd5b50610181600480360381019061017c9190611156565b6104b6565b60405161018e919061131a565b60405180910390f35b3480156101a357600080fd5b506101be60048036038101906101b99190611192565b6106db565b6040516101cb919061131a565b60405180910390f35b3480156101e057600080fd5b506101fb60048036038101906101f69190611192565b6107e3565b604051610208919061131a565b60405180910390f35b34801561021d57600080fd5b5061023860048036038101906102339190611192565b610bd6565b6040516102459190611335565b60405180910390f35b34801561025a57600080fd5b50610263610bfa565b6040516102709190611215565b60405180910390f35b34801561028557600080fd5b506102a0600480360381019061029b9190611192565b610c1e565b6040516102b195949392919061129e565b60405180910390f35b3480156102c657600080fd5b506102cf610c94565b6040516102dc9190611335565b60405180910390f35b3480156102f157600080fd5b5061030c6004803603810190610307919061112d565b610cb8565b604051610319919061131a565b60405180910390f35b61032a610dd2565b604051610337919061131a565b60405180910390f35b34801561034c57600080fd5b506103676004803603810190610362919061112d565b610e14565b604051610374919061131a565b60405180910390f35b60008060009054906101000a900473ffffffffffffffffffffffffffffffffffffffff1673ffffffffffffffffffffffffffffffffffffffff163373ffffffffffffffffffffffffffffffffffffffff16146103d857600080fd5b6001600360008473ffffffffffffffffffffffffffffffffffffffff1673ffffffffffffffffffffffffffffffffffffffff16815260200190815260200160002060009054906101000a900460ff1660ff161461043457600080fd5b6000600360008473ffffffffffffffffffffffffffffffffffffffff1673ffffffffffffffffffffffffffffffffffffffff16815260200190815260200160002060006101000a81548160ff021916908360ff16021790555060019050919050565b600060149054906101000a900460ff1681565b6000600480549050905090565b60008060009054906101000a900473ffffffffffffffffffffffffffffffffffffffff1673ffffffffffffffffffffffffffffffffffffffff163373ffffffffffffffffffffffffffffffffffffffff16148061056257506001600360003373ffffffffffffffffffffffffffffffffffffffff1673ffffffffffffffffffffffffffffffffffffffff16815260200190815260200160002060009054906101000a900460ff1660ff16145b61056b57600080fd5b6000600160008154809291906105809061143c565b919050559050823073ffffffffffffffffffffffffffffffffffffffff163110156105aa57600080fd5b6000600260008381526020019081526020016000209050338160000160006101000a81548173ffffffffffffffffffffffffffffffffffffffff021916908373ffffffffffffffffffffffffffffffffffffffff160217905550848160010160006101000a81548173ffffffffffffffffffffffffffffffffffffffff021916908373ffffffffffffffffffffffffffffffffffffffff160217905550838160020181905550600081600301819055506001548160040181905550600460015490806001815401808255809150506001900390600052602060002001600090919091909150557f41d8c89c4a25824354aa1f198d80d06f2f93f903a2d180d1ea20429a4678c4a43386866001546040516106c79493929190611259565b60405180910390a160019250505092915050565b60008060009054906101000a900473ffffffffffffffffffffffffffffffffffffffff1673ffffffffffffffffffffffffffffffffffffffff163373ffffffffffffffffffffffffffffffffffffffff16148061078757506001600360003373ffffffffffffffffffffffffffffffffffffffff1673ffffffffffffffffffffffffffffffffffffffff16815260200190815260200160002060009054906101000a900460ff1660ff16145b61079057600080fd5b600033905061079f81846104b6565b507f884edad9ce6fa2440d8a54cc123490eb96d2768479d49ff9c7366125a942436481846040516107d1929190611230565b60405180910390a16001915050919050565b60008060009054906101000a900473ffffffffffffffffffffffffffffffffffffffff1673ffffffffffffffffffffffffffffffffffffffff163373ffffffffffffffffffffffffffffffffffffffff16148061088f57506001600360003373ffffffffffffffffffffffffffffffffffffffff1673ffffffffffffffffffffffffffffffffffffffff16815260200190815260200160002060009054906101000a900460ff1660ff16145b61089857600080fd5b6000600260006001856108ab919061136b565b81526020019081526020016000209050600073ffffffffffffffffffffffffffffffffffffffff168160000160009054906101000a900473ffffffffffffffffffffffffffffffffffffffff1673ffffffffffffffffffffffffffffffffffffffff16141561091957600080fd5b3373ffffffffffffffffffffffffffffffffffffffff168160000160009054906101000a900473ffffffffffffffffffffffffffffffffffffffff1673ffffffffffffffffffffffffffffffffffffffff16141561097657600080fd5b60018160050160003373ffffffffffffffffffffffffffffffffffffffff1673ffffffffffffffffffffffffffffffffffffffff16815260200190815260200160002060009054906101000a900460ff1660ff1614156109d557600080fd5b8060030160008154809291906109ea9061143c565b919050555060018160050160003373ffffffffffffffffffffffffffffffffffffffff1673ffffffffffffffffffffffffffffffffffffffff16815260200190815260200160002060006101000a81548160ff021916908360ff1602179055507fac63e7e1dc16bccf900879686e74ca33eeb175b670e3aaa9d7e4ccf3781b7a7a3384604051610a7b9291906112f1565b60405180910390a1600060149054906101000a900460ff1660ff1681600301541415610bcc5780600201543073ffffffffffffffffffffffffffffffffffffffff16311015610ac957600080fd5b8060010160009054906101000a900473ffffffffffffffffffffffffffffffffffffffff1673ffffffffffffffffffffffffffffffffffffffff166108fc82600201549081150290604051600060405180830381858888f19350505050158015610b37573d6000803e3d6000fd5b507f394c4e679790fab24fd86614fd812811c9c835e4c475bdfc3d26fd0d6f7ca6fd8160000160009054906101000a900473ffffffffffffffffffffffffffffffffffffffff168260010160009054906101000a900473ffffffffffffffffffffffffffffffffffffffff16836002015486604051610bb99493929190611259565b60405180910390a1610bca83610e70565b505b6001915050919050565b60048181548110610be657600080fd5b906000526020600020016000915090505481565b60008054906101000a900473ffffffffffffffffffffffffffffffffffffffff1681565b60026020528060005260406000206000915090508060000160009054906101000a900473ffffffffffffffffffffffffffffffffffffffff16908060010160009054906101000a900473ffffffffffffffffffffffffffffffffffffffff16908060020154908060030154908060040154905085565b6000803073ffffffffffffffffffffffffffffffffffffffff163190508091505090565b60008060009054906101000a900473ffffffffffffffffffffffffffffffffffffffff1673ffffffffffffffffffffffffffffffffffffffff163373ffffffffffffffffffffffffffffffffffffffff1614610d1357600080fd5b6001600360008473ffffffffffffffffffffffffffffffffffffffff1673ffffffffffffffffffffffffffffffffffffffff16815260200190815260200160002060009054906101000a900460ff1660ff161415610d7057600080fd5b6001600360008473ffffffffffffffffffffffffffffffffffffffff1673ffffffffffffffffffffffffffffffffffffffff16815260200190815260200160002060006101000a81548160ff021916908360ff16021790555060019050919050565b60007fe1fffcc4923d04b559f4d29a8bfc6cda04eb5b0d3c460751c2402c5c5cc9109c3334604051610e059291906112f1565b60405180910390a16001905090565b60006001600360008473ffffffffffffffffffffffffffffffffffffffff1673ffffffffffffffffffffffffffffffffffffffff16815260200190815260200160002060009054906101000a900460ff1660ff16149050919050565b60008060009054906101000a900473ffffffffffffffffffffffffffffffffffffffff1673ffffffffffffffffffffffffffffffffffffffff163373ffffffffffffffffffffffffffffffffffffffff161480610f1c57506001600360003373ffffffffffffffffffffffffffffffffffffffff1673ffffffffffffffffffffffffffffffffffffffff16815260200190815260200160002060009054906101000a900460ff1660ff16145b610f2557600080fd5b600060048054905011610f3757600080fd5b600080600090505b60048054905081101561105b5760018260ff161415610ff65760048181548110610f92577f4e487b7100000000000000000000000000000000000000000000000000000000600052603260045260246000fd5b90600052602060002001546004600183610fac919061136b565b81548110610fe3577f4e487b7100000000000000000000000000000000000000000000000000000000600052603260045260246000fd5b9060005260206000200181905550611048565b8360048281548110611031577f4e487b7100000000000000000000000000000000000000000000000000000000600052603260045260246000fd5b9060005260206000200154141561104757600191505b5b80806110539061143c565b915050610f3f565b5060018160ff1614611096577f4e487b7100000000000000000000000000000000000000000000000000000000600052600160045260246000fd5b60048054806110ce577f4e487b7100000000000000000000000000000000000000000000000000000000600052603160045260246000fd5b600190038181906000526020600020016000905590556001915050919050565b6000813590506110fd816114b4565b92915050565b600081359050611112816114cb565b92915050565b600081359050611127816114e2565b92915050565b60006020828403121561113f57600080fd5b600061114d848285016110ee565b91505092915050565b6000806040838503121561116957600080fd5b600061117785828601611103565b925050602061118885828601611118565b9150509250929050565b6000602082840312156111a457600080fd5b60006111b284828501611118565b91505092915050565b6111c481611406565b82525050565b6111d3816113b1565b82525050565b6111e28161139f565b82525050565b6111f1816113c3565b82525050565b611200816113ef565b82525050565b61120f816113f9565b82525050565b600060208201905061122a60008301846111d9565b92915050565b600060408201905061124560008301856111bb565b61125260208301846111f7565b9392505050565b600060808201905061126e60008301876111d9565b61127b60208301866111bb565b61128860408301856111f7565b61129560608301846111f7565b95945050505050565b600060a0820190506112b360008301886111d9565b6112c060208301876111ca565b6112cd60408301866111f7565b6112da60608301856111f7565b6112e760808301846111f7565b9695505050505050565b600060408201905061130660008301856111d9565b61131360208301846111f7565b9392505050565b600060208201905061132f60008301846111e8565b92915050565b600060208201905061134a60008301846111f7565b92915050565b60006020820190506113656000830184611206565b92915050565b6000611376826113ef565b9150611381836113ef565b92508282101561139457611393611485565b5b828203905092915050565b60006113aa826113cf565b9050919050565b60006113bc826113cf565b9050919050565b60008115159050919050565b600073ffffffffffffffffffffffffffffffffffffffff82169050919050565b6000819050919050565b600060ff82169050919050565b600061141182611418565b9050919050565b60006114238261142a565b9050919050565b6000611435826113cf565b9050919050565b6000611447826113ef565b91507fffffffffffffffffffffffffffffffffffffffffffffffffffffffffffffffff82141561147a57611479611485565b5b600182019050919050565b7f4e487b7100000000000000000000000000000000000000000000000000000000600052601160045260246000fd5b6114bd8161139f565b81146114c857600080fd5b50565b6114d4816113b1565b81146114df57600080fd5b50565b6114eb816113ef565b81146114f657600080fd5b5056fea2646970667358221220dbcfff6e8e27fc2ac9130f787d7d1d869be459351cb65bd17f8376a4cb33dbb664736f6c63430008000033",
  "immutableReferences": {},
  "source": "//  SPDX-License-Identifier: MIT\r\npragma solidity ^0.8.0;\r\n\r\ncontract MultisigWallet {\r\n    //\r\n    // Start!!\r\n    //\r\n\r\n    address public owner;\r\n    uint8 public MinSignatures = 2;\r\n    uint256 private transactionId;\r\n\r\n    //\r\n    // modifiers!!\r\n    //\r\n\r\n    constructor() {\r\n        owner = msg.sender;\r\n    }\r\n\r\n    modifier isOwner() {\r\n        require(msg.sender == owner);\r\n        _;\r\n    }\r\n    modifier validOwner() {\r\n        require(msg.sender == owner || Members[msg.sender] == 1);\r\n        _;\r\n    }\r\n\r\n    //\r\n    // struct and mappings!!\r\n    //\r\n\r\n    struct Transaction {\r\n        address from;\r\n        address payable to;\r\n        uint256 amount;\r\n        uint256 signatureCount;\r\n        uint256 transactionId;\r\n        mapping(address => uint8) signatures;\r\n    }\r\n    mapping(uint256 => Transaction) public transactions;\r\n    mapping(address => uint8) private Members;\r\n    uint256[] public pendingTransactions;\r\n\r\n    //\r\n    //events!!\r\n    //\r\n\r\n    event Deposit(address from, uint256 amount);\r\n    event Withdraw(address to, uint256 amount);\r\n    event TransactionCreated(\r\n        address from,\r\n        address to,\r\n        uint256 amount,\r\n        uint256 transactionId\r\n    );\r\n    event TransactionCompleted(\r\n        address from,\r\n        address to,\r\n        uint256 amount,\r\n        uint256 transactionId\r\n    );\r\n    event TransactionSigned(address by, uint256 transactionId);\r\n\r\n    //\r\n    // add and remove Members!!\r\n    //\r\n\r\n    function addMember(address addr) public isOwner returns (bool) {\r\n        require(Members[addr] != 1);\r\n        Members[addr] = 1;\r\n        return true;\r\n    }\r\n\r\n    function removeMember(address addr) public isOwner returns (bool) {\r\n        require(Members[addr] == 1);\r\n        Members[addr] = 0;\r\n        return true;\r\n    }\r\n\r\n    function checkMembers(address addr) public view returns (bool) {\r\n        return (Members[addr] == 1);\r\n    }\r\n\r\n    //\r\n    // deposit & withdraw & transfer!!\r\n    //\r\n\r\n    function deposit() public payable returns (bool) {\r\n        emit Deposit(msg.sender, msg.value);\r\n        return true;\r\n    }\r\n\r\n    function withdraw(uint256 amount) public validOwner returns (bool) {\r\n        address payable addr = payable(msg.sender);\r\n        transferTo(addr, amount);\r\n        emit Withdraw(addr, amount);\r\n        return true;\r\n    }\r\n\r\n    function transferTo(address payable to, uint256 amount)\r\n        public\r\n        validOwner\r\n        returns (bool)\r\n    {\r\n        uint256 TransactionId = transactionId++;\r\n        require(address(this).balance >= amount);\r\n        Transaction storage transaction = transactions[TransactionId];\r\n        transaction.from = msg.sender;\r\n        transaction.to = to;\r\n        transaction.amount = amount;\r\n        transaction.signatureCount = 0;\r\n        transaction.transactionId = transactionId;\r\n        pendingTransactions.push(transactionId);\r\n\r\n        emit TransactionCreated(msg.sender, to, amount, transactionId);\r\n        return true;\r\n    }\r\n\r\n    //\r\n    // sign Transaction!!\r\n    //\r\n\r\n    function signTransaction(uint256 trId) public validOwner returns (bool) {\r\n        Transaction storage transaction = transactions[trId - 1];\r\n        require(transaction.from != 0x0000000000000000000000000000000000000000);\r\n        require(transaction.from != msg.sender);\r\n        require(transaction.signatures[msg.sender] != 1);\r\n        transaction.signatureCount++;\r\n        transaction.signatures[msg.sender] = 1;\r\n\r\n        emit TransactionSigned(msg.sender, trId);\r\n\r\n        if (transaction.signatureCount == MinSignatures) {\r\n            require(address(this).balance >= transaction.amount);\r\n            transaction.to.transfer(transaction.amount);\r\n            emit TransactionCompleted(\r\n                transaction.from,\r\n                transaction.to,\r\n                transaction.amount,\r\n                trId\r\n            );\r\n            deleteTransaction(trId);\r\n        }\r\n        return true;\r\n    }\r\n\r\n    //\r\n    // delete Transaction!!\r\n    //\r\n\r\n    function deleteTransaction(uint256 trId) private validOwner returns (bool) {\r\n        require(pendingTransactions.length > 0);\r\n        uint8 replace;\r\n        for (uint256 i = 0; i < pendingTransactions.length; i++) {\r\n            if (replace == 1) {\r\n                pendingTransactions[i - 1] = pendingTransactions[i];\r\n            } else if (pendingTransactions[i] == trId) {\r\n                replace = 1;\r\n            }\r\n        }\r\n        assert(replace == 1);\r\n        pendingTransactions.pop();\r\n\r\n        return true;\r\n    }\r\n\r\n    //\r\n    // get balance!!\r\n    //\r\n\r\n    function balance() public view returns (uint256) {\r\n        uint256 cBalance = address(this).balance;\r\n        return cBalance;\r\n    }\r\n\r\n    //\r\n    // get length of pendingTransactions!!\r\n    //\r\n\r\n    function length() public view returns (uint256) {\r\n        return pendingTransactions.length;\r\n    }\r\n\r\n    //\r\n    // End!!\r\n    //\r\n}\r\n",
  "sourcePath": "D:\\New folder\\MultisigWallet\\contracts\\MultisigWallet.sol",
  "compiler": {
    "name": "solc",
    "version": "0.8.0+commit.c7dfd78e.Emscripten.clang"
  },
  "schemaVersion": "3.4.4",
  "updatedAt": "2022-03-11T15:31:15.269Z",
  "networkType": "ethereum",
  "devdoc": {
    "kind": "dev",
    "methods": {},
    "version": 1
  },
  "userdoc": {
    "kind": "user",
    "methods": {},
    "version": 1
  }
}